:030000000211E703
:0C11E700787FE4F6D8FD75814B02122ED3
:10151800D3EF9400EE940040147D6E7C00ED1D70B6
:0D152800011CED4C70F7EF1F70E61E80E314
:011535002293
:10148D00C2B77B46AF031BEF70FAD2B7E4FB30B7A0
:10149D00117F017E001215180BEBD3940540EF7FE1
:0414AD0000227F0199
:0114B1002218
:0C13040012148D7F017E001215187FCCA2
:10131000E4FBFAC2B7051BE51B7002051AEF139236
:10132000B7751A00751B06E51B151BAC1A70021564
:101330001A4C70F3D2B7EFC313FF0BBB00010AEBDB
:0513400064084A70CEB4
:011345002285
:101346007D087C00C2B70FBF0000D2B70FBF0000F8
:101356000FBF0000A2B7E433C43333335480FBE934
:10136600C3134BF97E007F04EF1FAA0670011E4AC5
:0D13760070F6ED1D70011CED4C70C9AF014B
:011383002247
:0815DB001213047F44021310F7
:0815E3001213047FBE02131075
:10127300E4FFFEF518F517F516F5151215DB121533
:10128300E31213468F19121346EFFEE519FFAD075C
:10129300AC06EC120B108F188E178D168C15E4FF0D
:1012A300FE7D807C3DAB18AA17A916A8151208F875
:0C12B300E4FBFAF9783F120807120B491F
:0112BF00220C
:041463007F057E0083
:10146700E4F517F5188E178F18D3E5189400E517CC
:10147700940040117FFF7E00121564E5181518705F
:05148700E8151780E4E8
:01148C00223D
:10156400E4FDFCC3ED9FEC9E5008000DBD00010C92
:0215740080F104
:011576002252
:1013C000E4F580D2B47F05FE1214677F3812159AB7
:1013D0001214637F3812159A1214637F3812159A0B
:1013E0007F3812159A7F0812159A7F0112159A7F7D
:0913F0000512159A7F0C02159AF2
:0515EB00C2B6C2B522EA
:0515F000D2B6C2B522D5
:0515F500C2B6D2B522D0
:10159A008F171215BA40FB8517801215EB0215FA40
:1015AA008F161215BA40FB8516801215F50215FA28
:0515FA00C2B4D2B422CE
:101577008F16ED60054316408000121463AF160204
:02158700159AB3
:0A15C7008B15121577AF150215AA57
:0D15BA007580FF1215F01215FAE58033223E
:0A15D1003031323334353637383903
:100E2700E4F508F509C200F50A780B7C00FD7BFFA5
:100E37007A1579D1FE7F0A120C9A1213C0309003EB
:100E47000210127F047E0012146730900302101202
:100E5700C2A6300003021062121273AB07AA067C07
:100E6700007D0A120CC0740B2DF8E67806F27C00A0
:100E77007D64AF03AE02120CC07E007F0ACFCDCFD8
:100E8700CECCCE120CC0740B2FF8E67807F208749C
:100E97002EF27C037DE8AF03AE02120CC07E007F0A
:100EA70064CFCDCFCECCCE120CC0740B2FF8E67822
:100EB70009F2AE02AF037C277D10120CC07E037FC0
:100EC700E8CFCDCFCECCCE120CC0740B2FF8E6787E
:100ED7000AF2087420F2E4F50A7406250AF8E2FB20
:100EE700E4FDFF1215C77F647E00121467050AE54B
:100EF7000AD3940540E3121063AB07AA067C007D72
:100F07000A120CC0740B2DF8E67800F27C007D64A1
:100F1700AF03AE02120CC07E007F0ACFCDCFCECC7E
:100F2700CE120CC0740B2FF8E67801F27C037DE833
:100F3700AF03AE02120CC07E007F64CFCDCFCECC04
:100F4700CE120CC0740B2FF8E67802F27C277D10C6
:100F5700AF03AE02120CC07E037FE8CFCDCFCECC5D
:100F6700CE120CC0740B2FF8E67803F2AE02AF0373
:100F7700EE3395E0FDFC7BA07A86790178001212AA
:100F8700C0AC00AD01AE02AF03E47B107A27F9F8DD
:100F97001212C0740B2FF8E67804F2087420F2C21C
:100FA700A67FC87E00121467E4F50A7400250AF8C4
:100FB700E2FBE4FDFF1215C77F647E00121467058C
:100FC7000AE50AD3940540E3D2A6E4F50A74062598
:100FD7000AF8E2FFAE0974782EF8EFF27400250ADA
:100FE700F8E2FF740C2EF8EFF20509E50970020527
:100FF70008646C45087004D20080107F647E00127C
:101007001467050AE50AD3940540C2309103020E1E
:10101700447F027E00121467309103020E441213BC
:10102700C0C2A7E4F50AD3E50A9509E49508502656
:101037007478250AF8E2FBE4FDFF1215C7740C2546
:101047000AF8E2FB7D01E4FF1215C77F647E0012F8
:0B1057001467050A80D0D2A7020E44E7
:01106200226B
:10142F000235000004290000000009370000000009
:10143F000000000000042100000000044400000030
:10144F0000042D41C8000004253F80000004403FE8
:03145F008000000A
:1013F9007D407F901214F87F901214D67535008FB6
:1014090036AC35AD36EC120B10E4FBFA79A0784016
:101419001208F8E4FBFA797F7843120A018F248EC7
:06142900238D228C21221C
:101063001213F9AC35AD36EC120B10E4FBFA79A090
:1010730078401208F8E4FBFA79807843120A018F6A
:10108300348E338D328C31E4FBFA79207841AF30E2
:10109300AE2FAD2EAC2D120A017B0A7AD779A37835
:1010A3003C1208F8E4FBFAF9783F1208078F288E00
:1010B300278D268C25AB34AA33A932A8311208F820
:1010C3008F4B8E4A8D498C487F857E6B7D057C4393
:1010D300AB4BAA4AA949A8481208F8AB4BAA4AA99C
:1010E30049A8481208F8AB4BAA4AA949A8481208CC
:1010F300F8C004C005C006C0077F297EDC7D7F7C65
:1011030043AB4BAA4AA949A8481208F8AB4BAA4AD1
:10111300A949A8481208F8A804A905AA06AB07D04C
:1011230007D006D005D004120803C004C005C006CA
:10113300C0077FF67E587D567C44AB4BAA4AA9492B
:10114300A8481208F8D003D002D001D00012080733
:10115300E4FBFAF9783F1208F8AB43AA42A941A885
:10116300401208F88F478E468D458C44E4FFFEFD00
:10117300FCAB47AA46A945A844120A9E600250093F
:10118300E4F547F546F545F544E4FFFE7DAF7C44C1
:10119300AB47AA46A945A844120A9E600D400BE43A
:1011A300F547F5467545AF754444E4FFFE7D207C65
:1011B30041AB47AA46A945A8441208F8E4FBFAF94B
:1011C300783F1208078F478E468D458C44120B4992
:1011D300AD07AC06EC120B108F478E468D458C4441
:0411E300120B492280
:1014F8008F158D1612154EAF15121384200202C3D4
:1015080022AF16121384200202C322121589D32295
:0214D6008F1570
:1014D80012154EE51504FF1213842002037F002223
:0F14E8001214B28F16D201121536121589AF16D3
:0114F70022D2
:10154E00D29700D2960000000000C2970000000063
:06155E0000C2960000220D
:10158900C29700D2960000000000D2970000000028
:01159900222F
:10138400E4FEEFA806088002C333D8FC30E704D299
:10139400978002C29700D2960000000000C2960E09
:1013A400BE08DF0000D2970000D2960000003097FC
:0B13B40004C2028002D202C2960000B8
:0113BF00220B
:1014B200E4FFD297FE00C2960000000000D2960020
:1014C20000EF25E0FF3097010F00000EBE08E6C2D4
:0314D20096000081
:0114D50022F4
:10153600200104C2978002D297000000D2960000D4
:08154600000000C29600002223
:10080000020BB5E86480F8E933E83360110460F066
:10081000ED33EC337009E8FCE9FDEAFEEBFF22045E
:1008200060DED3EB9FEA9EE99DE8C2E78CF0C2F759
:1008300095F0400CE8CCF8E9CDF9EACEFAEBCFFB25
:10084000120B8085D0F05804700320D5B3E80470F3
:10085000075002B2D5020BBF92D5EC0460F7E4CC8E
:10086000C0E0C398F8603B94186008400DD0E0FBEE
:10087000020B97E4FBFAC9FC8028E830E406E4C9DF
:10088000FBE4CAFCE830E305E4C9CACBFCE8540742
:100890006010F8C3E913F9EA13FAEB13FBEC13FC4D
:1008A000D8F130F52FC3E49CFCEF9BFFEE9AFEEDF0
:1008B00099FDD0E0FBEF4E4D4C701222DB03020B92
:1008C000BCEC2CFCEF33FFEE33FEED33FDED30E7F7
:1008D000EB020B97EF2BFFEE3AFEED39FDD0E0FB7C
:1008E00050130BBB0003020BBFED13FDEE13FEEF25
:0808F00013FFEC13FC020B974F
:1008F800EC4D6011E8497017ED33EC3304600DE4FA
:10090800FCFFFEFD22E933E8330470F8020BB51250
:100918000B8058046009E4CC248150062850090251
:100928000BBF284003020BBCC0E0EB4A7044B980FF
:1009380006D0E0FB020BABEF4E701CBD8008EBFF4E
:10094800EAFEE9FD80EBE98DF0A4FEE5F00209E19D
:10095800E9CDF9EAFEEBFFEF89F0A4FCE5F0CE89DA
:10096800F0A42EFFE435F0CD89F0A42DFEE435F097
:100978008067EF4E7005BD80D780C3EF8BF0A4ACC5
:10098800F0EE8BF0A42CFCE435F0F8EF8AF0A42C00
:10099800E5F038FCE433CB8DF0A42CFCE5F03BF813
:1009A800EE8AF0A42CFCE5F038F8E433CF89F0A403
:1009B8002CFCE5F038CF3400CE89F0A42FFFE5F009
:1009C8003EFEE433C98DF0A42EFEE5F039CD8AF061
:1009D800A42FFFE5F03EFEE43DFD33D0E0FB5007D9
:1009E8000BBB000F020BBFEC2CFCEF33FFEE33FE0A
:0609F800ED33FD020B9738
:1009FE00020BBFEC5D046005E859047003020BB5F1
:100A0E00120B80580460F6EC4860F2EC7004FDFEA8
:100A1E00FF22C860DB2481C85009C39860025006CB
:100A2E00020BBC9850CAF582E9294B4A7005AB827D
:100A3E00020BAB75F0007C1A7880C3EF9BEE9AED3B
:100A4E0099400DC3EF9BFFEE9AFEED99FDE842F043
:100A5E00DC23ACF0D0E0FFD0E0FED0E0FDAB822096
:100A6E00E7101BEB60BAEC2CFCEF33FFEE33FEED20
:100A7E0033FD020B97E803F830E705C0F075F00080
:100A8E00EF2FFFEE33FEED33FD40B830E7C280AA04
:100A9E0074F8CC6480CCC86480C8F582046043C30B
:100AAE00EB9FF5F0EA9E42F0E99D42F0E89C45F09E
:100ABE0060305018E5825FFFE582F42B5582FB50C3
:100ACE00210ABA001D09B90019088016E5825BFBE0
:100ADE00E582F42F5582FF50090EBE00050DBD00B4
:100AEE00010CC3EB9FF5F0EA9E42F0E99D42F0E85F
:0D0AFE009C45F06007CC4820E701B3EC22D6
:100B0B0075F020800E75F010800575F0087D007E65
:100B1B00007F003392D530D503120CF6EC33401026
:100B2B00EF33FFEE33FEED33FDEC33FCD5F0ED226E
:0E0B3B00E5F0247EA2D513CC92E7CDCEFF22AA
:100B4900EDD2E7CD33EC3392D524814006E4FFFEA4
:100B5900FDFC22FCE4CFCECDCC24E0501174FF8003
:100B6900EDC3CC13CCCD13CDCE13CECF13CF0470A0
:070B7900F030D5DE020CF69E
:100B8000E9D2E7C933E833F892D5EDD2E7CD33ECBB
:070B900033FC5002B2D52234
:100B9700EC30E7100FBF000C0EBE00080DBD0004BF
:100BA7000BEB6014A2D5EB13FCED92E7FD2274FF6B
:100BB700FCFDFEFF22E480F8A2D574FF13FC7D80C4
:030BC700E480EFD8
:1011F300020E27E493A3F8E493A34003F68001F2DD
:1012030008DFF48029E493A3F85407240CC8C333FC
:10121300C4540F4420C8834004F456800146F6DFCB
:10122300E4800B010204081020408090142FE47E18
:10123300019360BCA3FF543F30E509541FFEE493C0
:10124300A360010ECF54C025E060A840B8E493A387
:10125300FAE493A3F8E493A3C8C582C8CAC583CAB2
:10126300F0A3C8C582C8CAC583CADFE9DEE780BE6A
:011462000089
:100BCA00E709F608DFFA8046E709F208DFFA803E0D
:100BDA0088828C83E709F0A3DFFA8032E309F608FA
:100BEA00DFFA8078E309F208DFFA807088828C8362
:100BFA00E309F0A3DFFA806489828A83E0A3F60816
:100C0A00DFFA805889828A83E0A3F208DFFA804CEF
:100C1A0080D280FA80C680D4806980F280338010C6
:100C2A0080A680EA809A80A880DA80E280CA80332F
:100C3A0089828A83ECFAE493A3C8C582C8CCC583A7
:100C4A00CCF0A3C8C582C8CCC583CCDFE9DEE78077
:100C5A000D89828A83E493A3F608DFF9ECFAA9F0F6
:100C6A00EDFB2289828A83ECFAE0A3C8C582C8CC4C
:100C7A00C583CCF0A3C8C582C8CCC583CCDFEADE65
:100C8A00E880DB89828A83E493A3F208DFF980CCC7
:100C9A0088F0EF60010E4E60C388F0ED2402B404C0
:100CAA000050B9F582EB2402B4040050AF23234567
:060CBA008223900C1A7366
:100CC000C2D5EC30E709B2D5E4C39DFDE49CFCEE4F
:100CD00030E715B2D5E4C39FFFE49EFE120D04C3B6
:100CE000E49DFDE49CFC8003120D0430D507C3E4B1
:060CF0009FFFE49EFE22BE
:1012C000C2D5E830E70FB2D5E4C39BFBE49AFAE459
:1012D00099F9E498F8EC30E717B2D51212F6120D2E
:1012E00095E4C39BFBE49AFAE499F9E498F8800347
:1012F000120D9530D50DE4C39FFFE49EFEE49DFDE5
:04130000E49CFC224B
:0E0CF600C3E49FFFE49EFEE49DFDE49CFC220F
:100D0400BC000BBE0029EF8DF084FFADF022E4CCD3
:100D1400F875F008EF2FFFEE33FEEC33FCEE9DEC9C
:100D2400984005FCEE9DFE0FD5F0E9E4CEFD22EDE2
:100D3400F8F5F0EE8420D21CFEADF075F008EF2F2C
:100D4400FFED33FD4007985006D5F0F222C398FD1D
:050D54000FD5F0EA22BA
:100D590075F008758200EF2FFFEE33FECD33CDCC51
:100D690033CCC58233C5829BED9AEC99E5829840D4
:100D79000CF582EE9BFEED9AFDEC99FC0FD5F0D6B1
:100D8900E4CEFBE4CDFAE4CCF9A88222B800C1B9DB
:100D99000059BA002DEC8BF084CFCECDFCE5F0CB19
:100DA900F97818EF2FFFEE33FEED33FDEC33FCEB52
:100DB90033FB10D703994004EB99FB0FD8E5E4F90D
:100DC900FA227818EF2FFFEE33FEED33FDEC33FCFA
:100DD900C933C910D7059BE99A4007EC9BFCE99AEE
:100DE900F90FD8E0E4C9FAE4CCFB2275F010EF2F33
:100DF900FFEE33FEED33FDCC33CCC833C810D70733
:100E09009BEC9AE899400AED9BFDEC9AFCE899F86D
:0E0E19000FD5F0DAE4CDFBE4CCFAE4C8F92200
:00000001FF
